{
  "contractName": "LolTokenSale",
  "abi": [
    {
      "inputs": [
        {
          "internalType": "contract LolToken",
          "name": "_tokenContract",
          "type": "address"
        },
        {
          "internalType": "uint256",
          "name": "_tokenPrice",
          "type": "uint256"
        }
      ],
      "stateMutability": "nonpayable",
      "type": "constructor"
    },
    {
      "anonymous": false,
      "inputs": [
        {
          "indexed": true,
          "internalType": "address",
          "name": "_buyer",
          "type": "address"
        },
        {
          "indexed": false,
          "internalType": "uint256",
          "name": "_numberOfTokens",
          "type": "uint256"
        }
      ],
      "name": "Sell",
      "type": "event"
    },
    {
      "inputs": [],
      "name": "tokenContract",
      "outputs": [
        {
          "internalType": "contract LolToken",
          "name": "",
          "type": "address"
        }
      ],
      "stateMutability": "view",
      "type": "function",
      "constant": true
    },
    {
      "inputs": [],
      "name": "tokenPrice",
      "outputs": [
        {
          "internalType": "uint256",
          "name": "",
          "type": "uint256"
        }
      ],
      "stateMutability": "view",
      "type": "function",
      "constant": true
    },
    {
      "inputs": [],
      "name": "tokenSold",
      "outputs": [
        {
          "internalType": "uint256",
          "name": "",
          "type": "uint256"
        }
      ],
      "stateMutability": "view",
      "type": "function",
      "constant": true
    },
    {
      "inputs": [
        {
          "internalType": "uint256",
          "name": "_numberOfTokens",
          "type": "uint256"
        }
      ],
      "name": "buyTokens",
      "outputs": [],
      "stateMutability": "payable",
      "type": "function",
      "payable": true
    },
    {
      "inputs": [],
      "name": "endSale",
      "outputs": [],
      "stateMutability": "nonpayable",
      "type": "function"
    }
  ],
  "bytecode": "0x608060405234801561001057600080fd5b50604051610aa3380380610aa383398181016040528101906100329190610174565b336000806101000a81548173ffffffffffffffffffffffffffffffffffffffff021916908373ffffffffffffffffffffffffffffffffffffffff16021790555081600160006101000a81548173ffffffffffffffffffffffffffffffffffffffff021916908373ffffffffffffffffffffffffffffffffffffffff16021790555080600281905550600060038190555050506101b4565b600080fd5b600073ffffffffffffffffffffffffffffffffffffffff82169050919050565b60006100f9826100ce565b9050919050565b600061010b826100ee565b9050919050565b61011b81610100565b811461012657600080fd5b50565b60008151905061013881610112565b92915050565b6000819050919050565b6101518161013e565b811461015c57600080fd5b50565b60008151905061016e81610148565b92915050565b6000806040838503121561018b5761018a6100c9565b5b600061019985828601610129565b92505060206101aa8582860161015f565b9150509250929050565b6108e0806101c36000396000f3fe60806040526004361061004a5760003560e01c80633610724e1461004f578063380d831b1461006b578063519ee19e1461008257806355a373d6146100ad5780637ff9b596146100d8575b600080fd5b6100696004803603810190610064919061056e565b610103565b005b34801561007757600080fd5b506100806102d5565b005b34801561008e57600080fd5b506100976104ca565b6040516100a491906105aa565b60405180910390f35b3480156100b957600080fd5b506100c26104d0565b6040516100cf9190610644565b60405180910390f35b3480156100e457600080fd5b506100ed6104f6565b6040516100fa91906105aa565b60405180910390f35b61010f600254826104fc565b341461011a57600080fd5b80600160009054906101000a900473ffffffffffffffffffffffffffffffffffffffff1673ffffffffffffffffffffffffffffffffffffffff166370a08231306040518263ffffffff1660e01b81526004016101769190610680565b602060405180830381865afa158015610193573d6000803e3d6000fd5b505050506040513d601f19601f820116820180604052508101906101b791906106b0565b10156101c257600080fd5b600160009054906101000a900473ffffffffffffffffffffffffffffffffffffffff1673ffffffffffffffffffffffffffffffffffffffff1663a9059cbb33836040518363ffffffff1660e01b815260040161021f9291906106dd565b6020604051808303816000875af115801561023e573d6000803e3d6000fd5b505050506040513d601f19601f82011682018060405250810190610262919061073e565b61026b57600080fd5b806003600082825461027d919061079a565b925050819055503373ffffffffffffffffffffffffffffffffffffffff167f5e5e995ce3133561afceaa51a9a154d5db228cd7525d34df5185582c18d3df09826040516102ca91906105aa565b60405180910390a250565b60008054906101000a900473ffffffffffffffffffffffffffffffffffffffff1673ffffffffffffffffffffffffffffffffffffffff163373ffffffffffffffffffffffffffffffffffffffff161461032d57600080fd5b600160009054906101000a900473ffffffffffffffffffffffffffffffffffffffff1673ffffffffffffffffffffffffffffffffffffffff1663a9059cbb60008054906101000a900473ffffffffffffffffffffffffffffffffffffffff16600160009054906101000a900473ffffffffffffffffffffffffffffffffffffffff1673ffffffffffffffffffffffffffffffffffffffff166370a08231306040518263ffffffff1660e01b81526004016103e79190610680565b602060405180830381865afa158015610404573d6000803e3d6000fd5b505050506040513d601f19601f8201168201806040525081019061042891906106b0565b6040518363ffffffff1660e01b81526004016104459291906106dd565b6020604051808303816000875af1158015610464573d6000803e3d6000fd5b505050506040513d601f19601f82011682018060405250810190610488919061073e565b61049157600080fd5b60008054906101000a900473ffffffffffffffffffffffffffffffffffffffff1673ffffffffffffffffffffffffffffffffffffffff16ff5b60035481565b600160009054906101000a900473ffffffffffffffffffffffffffffffffffffffff1681565b60025481565b60008082148061052457508282838561051591906107f0565b9250826105229190610879565b145b61052d57600080fd5b92915050565b600080fd5b6000819050919050565b61054b81610538565b811461055657600080fd5b50565b60008135905061056881610542565b92915050565b60006020828403121561058457610583610533565b5b600061059284828501610559565b91505092915050565b6105a481610538565b82525050565b60006020820190506105bf600083018461059b565b92915050565b600073ffffffffffffffffffffffffffffffffffffffff82169050919050565b6000819050919050565b600061060a610605610600846105c5565b6105e5565b6105c5565b9050919050565b600061061c826105ef565b9050919050565b600061062e82610611565b9050919050565b61063e81610623565b82525050565b60006020820190506106596000830184610635565b92915050565b600061066a826105c5565b9050919050565b61067a8161065f565b82525050565b60006020820190506106956000830184610671565b92915050565b6000815190506106aa81610542565b92915050565b6000602082840312156106c6576106c5610533565b5b60006106d48482850161069b565b91505092915050565b60006040820190506106f26000830185610671565b6106ff602083018461059b565b9392505050565b60008115159050919050565b61071b81610706565b811461072657600080fd5b50565b60008151905061073881610712565b92915050565b60006020828403121561075457610753610533565b5b600061076284828501610729565b91505092915050565b7f4e487b7100000000000000000000000000000000000000000000000000000000600052601160045260246000fd5b60006107a582610538565b91506107b083610538565b9250827fffffffffffffffffffffffffffffffffffffffffffffffffffffffffffffffff038211156107e5576107e461076b565b5b828201905092915050565b60006107fb82610538565b915061080683610538565b9250817fffffffffffffffffffffffffffffffffffffffffffffffffffffffffffffffff048311821515161561083f5761083e61076b565b5b828202905092915050565b7f4e487b7100000000000000000000000000000000000000000000000000000000600052601260045260246000fd5b600061088482610538565b915061088f83610538565b92508261089f5761089e61084a565b5b82820490509291505056fea2646970667358221220c90315981d28a933e9c0463b1154bf4ac2b9612ca5f07294749f9be578105ba564736f6c634300080b0033",
  "immutableReferences": {},
  "source": "// SPDX-License-Identifier: MIT\r\npragma solidity >=0.5.0;\r\nimport \"./LolToken.sol\";\r\n\r\ncontract LolTokenSale{\r\n    address admin;\r\n    LolToken public tokenContract;\r\n    uint public tokenPrice;\r\n    uint public tokenSold;\r\n\r\n    event Sell(address indexed _buyer,uint _numberOfTokens);\r\n\r\n    constructor(LolToken _tokenContract,uint _tokenPrice){  \r\n        admin=msg.sender;\r\n        tokenContract=_tokenContract;\r\n        tokenPrice=_tokenPrice;\r\n        tokenSold=0;\r\n    }   \r\n    function _multiply(uint x,uint y) pure internal returns(uint z){\r\n        require(y == 0 || (z = x * y) / y == x);\r\n    }\r\n    function buyTokens(uint _numberOfTokens) public payable{\r\n        //require value is equal to tokens\r\n        require(msg.value == _multiply(tokenPrice,_numberOfTokens));\r\n        //require that the contract has enough tokens\r\n        require(tokenContract.balanceOf(address(this))>=_numberOfTokens);\r\n        //require that a transfer is successful\r\n        require(tokenContract.transfer(msg.sender, _numberOfTokens));\r\n        //keep track of tokens sold\r\n        tokenSold+=_numberOfTokens;\r\n\r\n        //trigger sell event\r\n        emit Sell(msg.sender, _numberOfTokens);\r\n    }\r\n    function endSale() public{\r\n        //require admin only access\r\n        require(msg.sender==admin);\r\n        //transfer remaing tokens back to admin\r\n        require(tokenContract.transfer(admin, tokenContract.balanceOf(address(this))));\r\n        //destroy this contract\r\n        selfdestruct(payable(admin));\r\n    }\r\n}",
  "sourcePath": "D:\\New folder\\Blockchain\\token-ico\\contracts\\LolTokenSale.sol",
  "compiler": {
    "name": "solc",
    "version": "0.8.11+commit.d7f03943.Emscripten.clang"
  },
  "schemaVersion": "3.4.4",
  "updatedAt": "2022-07-12T09:47:13.970Z",
  "networkType": "ethereum",
  "devdoc": {
    "kind": "dev",
    "methods": {},
    "version": 1
  },
  "userdoc": {
    "kind": "user",
    "methods": {},
    "version": 1
  }
}